:020000040800F2
:1000000000C000207D0200083D5400084154000853
:1000100045540008495400084D54000800000000F1
:10002000000000000000000000000000555400081F
:100030005154000800000000595400085D540008A5
:10004000E9540008ED540008F154000879570008FD
:10005000F5540008F9540008FD5400080155000843
:1000600005550008095500080D5500085D570008A2
:1000700011550008155500081557000819550008B6
:100080001D55000821550008255500082955000870
:100090000D5700082D55000831550008355500084A
:1000A000395500083D5500084155000845550008E0
:1000B00049550008995600084D550008515500084B
:1000C00055550008595500085D5500086155000850
:1000D0006555000839560008695500086D55000837
:1000E000BD55000871550008755500087955000880
:1000F0007D55000881550008855500088955000880
:100100008D5500089155000895550008995500082F
:100110009D550008A1550008A5550008A9550008DF
:10012000AD550008B1550008B5550008B95500088F
:1001300000000000000000000000000000000000BF
:1001400000000000000000000000000000000000AF
:10015000000000000000000000000000000000009F
:10016000000000000000000000000000000000008F
:10017000000000000000000000000000000000007F
:10018000000000000000000000000000000000006F
:10019000000000000000000000000000000000005F
:1001A000000000000000000000000000000000004F
:1001B000000000000000000000000000000000003F
:1001C000000000000000000000000000000000002F
:1001D000000000000000000000000000000000001F
:0401E0005FF8E0F1F3
:1001E40070B414460F2C06460D4604D945EA06039E
:1001F40013F0030F0DD04AB14FF0000C11F80C307E
:1002040000F80C300CF1010C9445F7D1304670BC69
:100214007047A4460B68ACF1100C03604A68426056
:100224008B688360CA681031C2601030BCF10F0F54
:10023400F0D8A4F1100303F00F0223F00F031033DE
:10024400EC18F118032A13D94FF0000C54F80C30B1
:1002540041F80C300CF1040CCCEB0203032BF5D861
:10026400131F03F0030223F003030433E418C91833
:1002740008462146BFE7C046684620F007018D4680
:1002840001B540F20002C2F2000240F67C73C2F2F1
:1002940000039A4216D24FF0000240F20001C2F26B
:1002A40000014FF2E40EC0F6000E40F67C70C2F27C
:1002B40000005EF802308B5002F1040201EB0203ED
:1002C4008342F6D340F67C72C2F2000241F6402328
:1002D400C2F200039A420DD240F67C73C2F20003CC
:1002E4004FF0000141F64022C2F2000243F8041B21
:1002F4009342FBD305F044FCBDE8014085467047BA
:10030400044A136803F03803136013681843106039
:100314007047C04600200240044A136823F01003CB
:1003240013601368184310607047C04600200240F1
:10033400034B044A5A6002F188325A607047C0463F
:100344000020024023016745014BD8607047C04636
:1003540000200240094AD36813F0010F01D00120A4
:100364000BE0D36813F0040F01D0022005E0D3683A
:1003740013F0100F14BF0320042070470020024024
:1003840013B50446FFF7E6FF0CE000230193FF33A7
:1003940001E0019B013B0193019B002BF9D1FFF785
:1003A400D9FF013C012802D1002CEED100E004B9B0
:1003B40005201CBD70B506460F200D46FFF7E0FF73
:1003C400042818D10C4C0B30236943F0010323613A
:1003D400ABB23380FFF7D4FF042804D12B0C738015
:1003E4000B30FFF7CDFF012805D0226941F6FE73DB
:1003F40002EA0303236170BD0020024070B5054684
:1004040040F6FF70FFF7BCFF042815D10B4C40F6F3
:10041400FF70236943F0020323616561236943F09C
:1004240040032361FFF7ACFF012805D0226941F6A0
:10043400FD7302EA0303236170BDC046002002403D
:1004440010B59C469DF8083014469DF810E0BDF8A0
:100454000C2033B9BEF1010F01D1012C02D0194691
:1004640000E01146E04710BD0B490B780E2B12D06B
:100474000B78292B0FD00B782A2B0CD0074AD38B5F
:1004840013F0010F07D092F84A30043BDBB2012B82
:1004940001D823230B7070477C0F0020A813002081
:1004A400024B25221A7000225A7070477C0F0020DC
:1004B40010B55D4B1A78CAB19B78012B16D1082A66
:1004C4000FD005D8022A0CD0042A0AD0012A07E04A
:1004D400202A06D001D8102A02E0402A01D0802A1E
:1004E40001D1FFF7DDFF504B00229A704E4A53783A
:1004F40003B913704D4B1B6813F4006F06D04C4BBB
:1005040093F86530022B01D1FFF7CAFF474B1B68F4
:1005140013F400520CD0464B93F86730022B04D0EE
:10052400042B07D1434B01229A70FFF7B9FF01E076
:10053400404B9A703D4B1B6813F480420CD03C4BEB
:1005440093F86830022B04D0042B07D1394B0122D5
:10055400DA70FFF7A5FF01E0364BDA70334B1B6806
:1005640013F400420CD0324B93F86930022B04D0C0
:10057400042B07D12F4B01221A71FFF791FF01E0E1
:100584002C4B1A71294B1B6813F480320CD0284B66
:1005940093F86A30022B04D0042B07D1254B012297
:1005A4005A71FFF77DFF01E0224B5A711F4B1B6804
:1005B40013F400320CD01E4B93F86B30022B04D092
:1005C400042B07D11B4B01229A71FFF769FF01E04D
:1005D400184B9A71154B1B6813F480220CD0144BE2
:1005E40093F86C30022B04D0042B07D1114B012259
:1005F400DA71FFF755FF01E00E4BDA710B4B1B6804
:1006040013F400220CD00A4B93F86D30022B04D063
:10061400042B07D1074B01221A72FFF741FF01E0B7
:10062400044B1A7210BDC04698110020CC0F002054
:10063400DC1200207C0F0020024B28221A700022BA
:100644005A7070477C0F002010B5454BDA8B40F28E
:10065400BE7302EA0303002B40F08180414B1A78F9
:10066400CAB19B78012B16D1082A0FD005D8022ACB
:100674000CD0042A0AD0012A07E0202A06D001D887
:10068400102A02E0402A01D0802A01D1FFF7D4FFCA
:10069400344B00229A70334A537803B91370324BA7
:1006A4001B6813F4805F06D0304B93F86630032B3D
:1006B40001D1FFF7C1FF2C4B1B6813F4005F06D078
:1006C4002A4B93F86730032B01D1FFF7B5FF264B74
:1006D4001B6813F4804F06D0244B93F86830032B27
:1006E40001D1FFF7A9FF204B1B6813F4004F06D07C
:1006F4001E4B93F86930032B01D1FFF79DFF1A4B72
:100704001B6813F4803F06D0184B93F86A30032B10
:1007140001D1FFF791FF144B1B6813F4003F06D07F
:10072400124B93F86B30032B01D1FFF785FF0E4B6F
:100734001B6813F4802F06D00C4B93F86C30032BFA
:1007440001D1FFF779FF084B1B6813F4002F06D083
:10075400064B93F86D30032B01D1FFF76DFF10BDED
:10076400A813002098110020CC0F0020DC120020D8
:100774000B4B93F82E3023B90A4B40F2BE71DB8B3E
:1007840005E0012B0AD1074B40F23E61DB8B03EA03
:10079400010119B9044A1123137051727047C046FC
:1007A40018190020A81300207C0F0020334840F2C1
:1007B4009E7390F85C1040F29C72012914BF194694
:1007C400114690F85D30012B03D121F00401090496
:1007D400090C2A4B93F85E30012B03D121F0080158
:1007E4000904090C254B93F85F30012B03D121F048
:1007F40010010904090C224BDA8B10B211EA000C27
:1008040022D0204BDB7E012B05D81F4B22221A70ED
:1008140000229A7230E0022B2ED112F4F46F04D02D
:10082400194B22221A7000229A7200F01E030B4206
:1008340022D015490523154A0B70012313705370F8
:10084400013BCB720B7317E012F0200F14D00D4B49
:1008540093F83B10012906D10B4B22221A705973CD
:1008640083F80AC008E0022901D0032904D1064A0A
:10087400537B0BB92D3313707047C046DC12002034
:10088400A8130020181900207C0F0020000000206D
:1008940010B56A4B1A78D2B19B78012B17D1082A6C
:1008A4000FD005D8022A0CD0042A0AD0012A07E066
:1008B400202A06D001D8102A02E0402A01D0802A3A
:1008C40002D15F4B19221A705C4B00229A705B4A6A
:1008D400537803B913705B4B93F86530022B09D13D
:1008E400594B1B6813F4006F04D0554B22221A7025
:1008F40000229A72544B1B6813F400520FD0514BD0
:1009040093F86730022B04D0042B0AD14C4B0122FC
:100914009A704B4B22221A7000229A7201E0484BC3
:100924009A70494B1B6813F480420FD0454B93F8DF
:100934006830022B04D0042B0AD1414B0122DA7017
:100944003F4B22221A7000229A7201E03C4BDA706B
:100954003D4B1B6813F400420FD03A4B93F86930B7
:10096400022B04D0042B0AD1354B01221A71344BCB
:1009740022221A7000229A7201E0314B1A71324B12
:100984001B6813F480320FD02E4B93F86A30022B7D
:1009940004D0042B0AD12A4B01225A71284B22225B
:1009A4001A7000229A7201E0254B5A71264B1B687B
:1009B40013F400320FD0234B93F86B30022B04D086
:1009C400042B0AD11E4B01229A711D4B22221A704C
:1009D40000229A7201E01A4B9A711B4B1B6813F4A4
:1009E40080220FD0174B93F86C30022B04D0042BC9
:1009F4000AD1134B0122DA71114B22221A70002200
:100A04009A7201E00E4BDA710F4B1B6813F400224B
:100A14000FD00C4B93F86D30022B04D0042B0AD169
:100A2400074B01221A72064B22221A7000229A7274
:100A340001E0034B1A72FFF7B9FE10BD98110020B4
:100A44007C0F0020DC120020CC0F00202A4840F24A
:100A54009E7390F85C1040F29C72022918BF1A46EB
:100A640090F85D30022B03D122F004021204120C20
:100A7400214B93F85E30022B03D122F008021204BA
:100A8400120C1D4B93F85F30022B03D122F010029D
:100A94001204120C194BD98B0BB212EA030013D0B7
:100AA400174BDB7E012B03D8164B1D221A7022E054
:100AB400022B20D11349144A013B0B70137053705D
:100AC400013BCB720B7316E011F0200F13D00C4BCB
:100AD40093F83A10012905D10A4B2E221A70597342
:100AE400987208E0022901D0032904D1054A537BF6
:100AF4000BB92C3313707047DC120020A8130020AC
:100B0400181900207C0F00200000002010B5124BA3
:100B14001A78D2B19B78012B17D1082A0FD005D8A7
:100B2400022A0CD0042A0AD0012A07E0202A06D07F
:100B340001D8102A02E0402A01D0802A02D1074BB2
:100B44001D221A70044B00229A70034A537803B989
:100B54001370FFF77BFF10BD981100207C0F00205D
:100B640010B50C4A137823B19378012B01D1013BC2
:100B74009370084A537803B91370074A1378272BE4
:100B840002D1FFF713FE04E01378262B01D1FFF7FF
:100B94005DFF10BD981100207C0F002010B5064B9E
:100BA400DA8B40F2BE7302EA030313B1034B15223E
:100BB4001A70FFF7D5FF10BDA81300207C0F00208A
:100BC400084810B5837B012B09D10378064A1C2100
:100BD40001FB03235B699B7A037000238373FFF794
:100BE400DDFF10BD7C0F002000000020084810B578
:100BF400837B012B09D10378064A1C2101FB0323C3
:100C04005B699B7A037000238373FFF7C7FF10BDF2
:100C14007C0F0020000000200E4BDB7E23B90E4B1E
:100C2400DB8B13F4C07C07E0013BDBB2012B10D853
:100C3400094BDB8B13F0800C0BD10848084A03786E
:100C44001C2101FB03235B691B790370054BA3F88B
:100C540000C0704718190020A81300207C0F002042
:100C640000000020F813002010B54B4B1A78CAB1CD
:100C74009B78012B16D1082A0FD005D8022A0CD054
:100C8400042A0AD0012A07E0202A06D001D8102A13
:100C940002E0402A01D0802A01D1FFF701FC3E4B3B
:100CA40000229A703C4A537803B913703B4B1B687B
:100CB40013F4006F06D03A4B93F86530022B01D140
:100CC400FFF7EEFB354B1B6813F4005207D0344B8F
:100CD40093F86730022B04D1FFF7E2FB01E0314BBC
:100CE4009A702E4B1B6813F4804207D02C4B93F858
:100CF4006830022B04D1FFF7D3FB01E0294BDA70F3
:100D0400264B1B6813F4004207D0254B93F8693037
:100D1400022B04D1FFF7C4FB01E0224B1A711F4BD5
:100D24001B6813F4803207D01D4B93F86A30022BF2
:100D340004D1FFF7B5FB01E01A4B5A71174B1B683E
:100D440013F4003207D0164B93F86B30022B04D106
:100D5400FFF7A6FB01E0134B9A71104B1B6813F4C9
:100D6400802207D00E4B93F86C30022B04D1FFF78E
:100D740097FB01E00B4BDA71084B1B6813F400225C
:100D840007D0074B93F86D30022B04D1FFF788FB93
:100D940001E0044B1A7210BD98110020CC0F002002
:100DA400DC1200207C0F002010B5454BDA8B40F29A
:100DB400BE7302EA0303002B40F08180414B1A7892
:100DC400CAB19B78012B16D1082A0FD005D8022A64
:100DD4000CD0042A0AD0012A07E0202A06D001D820
:100DE400102A02E0402A01D0802A01D1FFF724FC16
:100DF400344B00229A70334A537803B91370324B40
:100E04001B6813F4805F06D0304B93F86630032BD5
:100E140001D1FFF711FC2C4B1B6813F4005F06D0C3
:100E24002A4B93F86730032B01D1FFF705FC264BBF
:100E34001B6813F4804F06D0244B93F86830032BBF
:100E440001D1FFF7F9FB204B1B6813F4004F06D0C8
:100E54001E4B93F86930032B01D1FFF7EDFB1A4BBE
:100E64001B6813F4803F06D0184B93F86A30032BA9
:100E740001D1FFF7E1FB144B1B6813F4003F06D0CC
:100E8400124B93F86B30032B01D1FFF7D5FB0E4BBC
:100E94001B6813F4802F06D00C4B93F86C30032B93
:100EA40001D1FFF7C9FB084B1B6813F4002F06D0D0
:100EB400064B93F86D30032B01D1FFF7BDFB10BD3A
:100EC400A813002098110020CC0F0020DC12002071
:100ED400084B1B6813F0010F02D0074B18221A703D
:100EE400044B1B6813F0020F02D0034B1E221A702E
:100EF4007047C046CC0F00207C0F002010B5174B64
:100F0400174C1B8E844603F57A7399B2154B2182D4
:100F14001A8E02F57A7398B2B2F5FA7F608207D31B
:100F2400A0F5F873033B8B4209DD01F5806305E00E
:100F340000F5FA73994202DDA1F580632382084B20
:100F44001A8AA0F132039A4201DA002005E00CEB80
:100F540000039A42CCBF0020012010BDA81300203A
:100F64007C0F00201819002010B5184B04465B8E26
:100F7400174803F57A7399B2164B81829A8E02F55B
:100F84007A731FFA83FCB2F5FA7FA0F816C007D370
:100F9400ACF5F873033B8B4209DD01F5806305E092
:100FA4000CF5FA73994202DDA1F580638382084B44
:100FB400988AC4EB0C03984201DA002005E00CF196
:100FC40032039842CCBF0020012010BDA81300209A
:100FD4007C0F00201819002010B5684A92F82D30B3
:100FE400002B48D1D37E43BB654A136813F0010F2D
:100FF40004D0136813F0040F40F0A280604A136811
:1010040013F0010F04D1136813F0040F40F0AB8008
:101014005B4A136813F0010F03D0136813F0040F35
:1010240053D0574A136813F0010F40F0A58013689A
:1010340013F0040F40F0A0805DE0013BDBB2012B14
:1010440000F29A804E4B1B6813F0010F0CD04D48F0
:101054004D4A03781C2101FB03235B690522DB79DC
:1010640003704A4B83F84A20454B1B6813F0010F69
:1010740040F0828077E0012B7ED1D37E002B43D1D8
:10108400434CB4F84A00FFF739FF012805D1B4F8FE
:101094004A00FFF769FF012852D03D4CB4F84A00DA
:1010A400FFF72CFF28B9B4F84A00FFF75DFF0128C9
:1010B40059D0374CB4F84A00FFF720FF01280DD16E
:1010C400B4F84A00FFF750FF40B92E482E4A03787F
:1010D4001C2101FB03235B695B794CE02C4CB4F8C5
:1010E4004A00FFF70BFF002846D1B4F84A00FFF787
:1010F4003BFF002840D12348234A03781C2101FBED
:1011040003235B699B7936E0013BDBB2012B33D8C7
:1011140092F82C305BB91E4CB4F84A00FFF7EEFE8F
:1011240001280DD0B4F84A00FFF7E8FE1AE0012BBD
:1011340022D1174CB4F84A00FFF716FF01280DD14D
:101144001048114A03781C2101FB03235B69052223
:10115400DB7903700D4B83F84A200DE0B4F84A00A4
:10116400FFF702FF40B90748074A03781C2101FB37
:1011740003235B691B79037010BDC0461819002056
:10118400CC0F00207C0F002000000020A8130020BA
:10119400DC12002010B5184B04461B8E174803F5CB
:1011A4007A7399B2164B01835A8E02F57A731FFA39
:1011B40083FCB2F5FA7FA0F81AC007D3ACF5F87334
:1011C400033B8B4209DD01F5806305E00CF5FA73FE
:1011D400994202DDA1F580630383084B188BC4EBAD
:1011E4000C03984201DA002005E00CF13203984226
:1011F400CCBF0020012010BDA81300207C0F0020CC
:101204001819002010B5174B174C5B8E844603F554
:101214007A7399B2154BA183DA8E02F57A7398B278
:10122400B2F5FA7FE08307D3A0F5F873033B8B4252
:1012340009DD01F5806305E000F5FA73994202DDEA
:10124400A1F58063A383084B9A8BA0F132039A42E1
:1012540001DA002005E00CEB00039A42CCBF002029
:10126400012010BDA81300207C0F002018190020B5
:1012740010B5674A92F82D30002B42D1D37E3BBB88
:10128400644A136813F0020F03D0136813F0080FB5
:1012940028D1604A136813F0020F04D1136813F0C5
:1012A400080F40F0A6805B4A136813F0020F03D0C6
:1012B400136813F0080F4ED0564A136813F0020F48
:1012C40040F0A080136813F0080F40F09B8058E0B2
:1012D400013BDBB2012B00F295804E4A136813F0F8
:1012E400020F08D04C484D4A03781C2101FB03230C
:1012F4005B69DB7985E0136813F0020F40F08280AC
:1013040077E0012B7ED1D37E002B43D1444CB4F83B
:101314004A00FFF73FFF012805D1B4F84A00FFF760
:1013240071FF012852D03E4CB4F84A00FFF732FF57
:1013340028B9B4F84A00FFF765FF012859D0384CA2
:10134400B4F84A00FFF726FF01280DD1B4F84A008B
:10135400FFF758FF40B93048304A03781C2101FB9D
:1013640003235B695B794CE02D4CB4F84A00FFF72A
:1013740011FF002846D1B4F84A00FFF743FF0028C4
:1013840040D12548254A03781C2101FB03235B69CE
:101394009B7936E0013BDBB2012B33D892F82C3039
:1013A4005BB91F4CB4F84A00FFF7F4FE01280DD0D6
:1013B400B4F84A00FFF7EEFE1AE0012B22D1184CD4
:1013C400B4F84A00FFF71EFF01280DD11248134A52
:1013D40003781C2101FB03235B690522DB7903707D
:1013E400104B83F84A200DE0B4F84A00FFF70AFFD7
:1013F40040B90948094A03781C2101FB03235B69AE
:101404001B790370044B002283F8202010BDC046D2
:1014140018190020CC0F00207C0F002000000020B1
:10142400DC120020A81300207047C0467047C04655
:10143400034B93F82E20012A04BF024B1A73704702
:1014440018190020C4100020454B1A78D2B19B789B
:10145400012B17D1082A0FD005D8022A0CD0042A50
:101464000AD0012A07E0202A06D001D8102A02E077
:10147400402A01D0802A02D13A4B18221A70384BE4
:1014840000229A70364A537803B91370364B1B689E
:1014940013F4805F07D0354B93F86630032B02D1E9
:1014A400304B18221A70304B1B6813F4005F07D0BE
:1014B4002E4B93F86730032B02D12A4B18221A7053
:1014C400294B1B6813F4804F07D0284B93F86830DE
:1014D400032B02D1234B18221A70234B1B6813F4DD
:1014E400004F07D0214B93F86930032B02D11D4BD9
:1014F40018221A701C4B1B6813F4803F07D01B4B37
:1015040093F86A30032B02D1164B18221A70164B2B
:101514001B6813F4003F07D0144B93F86B30032B74
:1015240002D1104B18221A700F4B1B6813F4802F32
:1015340007D00E4B93F86C30032B02D1094B1822C1
:101544001A70094B1B6813F4002F07D0074B93F84C
:101554006D30032B02D1034B18221A707047C0461A
:10156400981100207C0F0020CC0F0020DC120020FA
:10157400614B1A78D2B19B78012B17D1082A0FD06E
:1015840005D8022A0CD0042A0AD0012A07E0202A0E
:1015940006D001D8102A02E0402A01D0802A02D1C4
:1015A400564B1E221A70544B00229A70524A53789A
:1015B40003B91370524B1B6813F4006F07D0514BDF
:1015C40093F86530022B02D14C4B1E221A704C4BFF
:1015D4001B6813F400520DD04A4B93F86730022B6A
:1015E40004D0042B08D1454B01229A70434B1E2290
:1015F4001A7001E0414B9A70414B1B6813F480420E
:101604000DD0404B93F86830022B04D0042B08D142
:101614003A4B0122DA70394B1E221A7001E0374B23
:10162400DA70374B1B6813F400420DD0354B93F836
:101634006930022B04D0042B08D1304B01221A71DB
:101644002E4B1E221A7001E02C4B1A712C4B1B6876
:1016540013F480320DD02B4B93F86A30022B04D054
:10166400042B08D1254B01225A71244B1E221A70D7
:1016740001E0224B5A71224B1B6813F400320DD047
:10168400204B93F86B30022B04D0042B08D11B4B56
:1016940001229A71194B1E221A7001E0174B9A719C
:1016A400174B1B6813F480220DD0164B93F86C3043
:1016B400022B04D0042B08D1104B0122DA710F4BFA
:1016C4001E221A7001E00D4BDA710D4B1B6813F4E6
:1016D40000220DD00B4B93F86D30022B04D0042B59
:1016E40008D1064B01221A72044B1E221A7001E023
:1016F400024B1A727047C046981100207C0F0020DC
:10170400CC0F0020DC12002070B5664991F82D3012
:10171400002B58D1CB7E3BBB634A136813F0010FF7
:1017240005D1136813F0040F01D1212249E05E4A68
:10173400136813F0010F03D1136813F0040F1FD1C2
:10174400594A136813F0010F05D0136813F0040FFE
:1017540001D1202235E0544A136813F0010F32D02E
:10176400136813F0040F2AE0013BDBB2012B2AD8E3
:101774004D4A136813F0010F1ED191F82E300BB9A6
:101784001F221EE0012B1ED1484B04221A701A7826
:10179400474C18781C2101FB00401D7801FB0242D4
:1017A40001FB0545036916691A682B691188B0683D
:1017B4001A7902F063F906E0136813F0010F02D0FE
:1017C40018223A4B1A70374A92F82D30012B55D112
:1017D400D37E73BB374CB4F84A00FFF78FFB30B9A4
:1017E400B4F84A00FFF7C0FB08B9212244E0314CA9
:1017F400B4F84A00FFF782FB28B9B4F84A00FFF7AF
:10180400B3FB01282FD02B4CB4F84A00FFF776FB2A
:10181400012806D1B4F84A00FFF7A6FB08B9202234
:101824002AE0244CB4F84A00FFF768FB012825D1CC
:101834001BE0013BDBB2012B20D892F82C3053B9CA
:101844001C4CB4F84A00FFF759FB60B1B4F84A00E5
:10185400FFF754FB0DE0012B10D1164CB4F84A00ED
:10186400FFF782FB08B91F2206E0B4F84A00FFF72D
:101874007BFB012802D118220C4B1A700C4A0E482B
:10188400012313705370C38B0849002223F04003D3
:10189400CA720A73C3834A7381F8212081F8222013
:1018A40070BDC04618190020CC0F00207C0F00200A
:1018B40000000020DC120020A813002070B5674946
:1018C40091F82D30002B57D1CB7E3BBB644A136873
:1018D40013F0020F05D1136813F0080F01D11C2275
:1018E40048E05F4A136813F0020F03D1136813F042
:1018F400080F1FD15A4A136813F0020F05D013685A
:1019040013F0080F01D11B2234E0554A136813F079
:10191400020F31D0136813F0080F29E0013BDBB24A
:10192400012B29D84E4A136813F002001DD191F8F7
:101934002E300BB91A221DE0012B1DD1494B4A4C04
:1019440018701A7818781C2101FB00401D7801FBDF
:10195400024201FB0545036916691A682B6911885F
:10196400B0681A7902F08AF806E0136813F0020FDF
:1019740002D01E223B4B1A70384A92F82D30012BAC
:1019840055D1D37E73BB394CB4F84A00FFF702FC3F
:1019940030B9B4F84A00FFF735FC08B91C2244E01A
:1019A400324CB4F84A00FFF7F5FB28B9B4F84A0002
:1019B400FFF728FC01282FD02C4CB4F84A00FFF77D
:1019C400E9FB012806D1B4F84A00FFF71BFC08B96B
:1019D4001B222AE0254CB4F84A00FFF7DBFB012860
:1019E40025D11BE0013BDBB2012B20D892F82C302F
:1019F40053B91E4CB4F84A00FFF7CCFB60B1B4F8FD
:101A04004A00FFF7C7FB0DE0012B10D1174CB4F8C7
:101A14004A00FFF7F7FB08B91A2206E0B4F84A00B7
:101A2400FFF7F0FB012802D11E220E4B1A700E4A5A
:101A34000F48012313705370C38B0A49002223F00B
:101A44004003CA720A73C38381F8212081F82220DB
:101A54004A7381F8232081F8242070BD18190020CE
:101A6400CC0F00207C0F002000000020DC1200209E
:101A7400A813002010B5094BDB8B13F0200F0BD1FA
:101A8400074B93F83B30032B02D1FFF73DFE03E0F5
:101A9400022B01D1FFF712FF10BDC046A81300208E
:101AA4001819002010B5094BDB8B13F0200F0BD154
:101AB400074B93F83A30022B02D1FFF725FE03E0DF
:101AC400032B01D1FFF7FAFE10BDC046A813002076
:101AD4001819002010B58E4BDA8B40F2BE7302EA5F
:101AE4000303002B40F082808A4B1A78CAB19B789A
:101AF400012B16D1082A0FD005D8022A0CD0042AAB
:101B04000AD0012A07E0202A06D001D8102A02E0D0
:101B1400402A01D0802A01D1FFF7F6FD7D4B002237
:101B24009A707C4A537803B913707B4B1B6813F487
:101B3400805F06D0794B93F86630032B01D1FFF711
:101B4400E3FD754B1B6813F4005F06D0734B93F8E9
:101B54006730032B01D1FFF7D7FD6F4B1B6813F4DC
:101B6400804F06D06D4B93F86830032B01D1FFF7FB
:101B7400CBFD694B1B6813F4004F06D0674B93F8F9
:101B84006930032B01D1FFF7BFFD634B1B6813F4CE
:101B9400803F06D0614B93F86A30032B01D1FFF7E5
:101BA400B3FD5D4B1B6813F4003F06D05B4B93F809
:101BB4006B30032B01D1FFF7A7FD574B1B6813F4C0
:101BC400802F06D0554B93F86C30032B01D1FFF7CF
:101BD4009BFD514B1B6813F4002F2BD04F4B93F8F4
:101BE4006D30032B26D1FFF78FFD23E012F0200F79
:101BF40020D0484B1A78CAB19B78012B16D1082AF9
:101C04000FD005D8022A0CD0042A0AD0012A07E0F2
:101C1400202A06D001D8102A02E0402A01D0802AC6
:101C240001D1FFF74BFE3B4B00229A70394A53789F
:101C340003B91370384B1B6813F4006F06D0374B8D
:101C440093F86530022B01D1FFF738FE324B1B6845
:101C540013F400520CD0314B93F86730022B04D0AC
:101C6400042B07D12E4B01229A70FFF727FE01E0C7
:101C74002B4B9A70284B1B6813F480420CD0274BD3
:101C840093F86830022B04D0042B07D1244B012293
:101C9400DA70FFF713FE01E0214BDA701E4B1B686C
:101CA40013F400420CD01D4B93F86930022B04D07E
:101CB400042B07D11A4B01221A71FFF7FFFD01E033
:101CC400174B1A71144B1B6813F480320CD0134B4E
:101CD40093F86A30022B04D0042B07D1104B012255
:101CE4005A71FFF7EBFD01E00D4B5A710A4B1B686B
:101CF40013F4003216D0094B93F86B30022B04D046
:101D0400042B11D1064B01229A71FFF7D7FD0BE08A
:101D1400A813002098110020CC0F0020DC12002012
:101D24007C0F0020154B9A71154B1B6813F480220D
:101D34000CD0144B93F86C30022B04D0042B07D135
:101D44000E4B0122DA71FFF7B9FD01E00B4BDA719A
:101D54000B4B1B6813F400220CD00A4B93F86D3024
:101D6400022B04D0042B07D1044B01221A72FFF773
:101D7400A5FD01E0014B1A7210BDC0467C0F002086
:101D8400CC0F0020DC12002010B55B4B1A78CAB1CE
:101D94009B78012B16D1082A0FD005D8022A0CD023
:101DA400042A0AD0012A07E0202A06D001D8102AE2
:101DB40002E0402A01D0802A01D1FFF77FFD4E4B7B
:101DC40000229A704C4A537803B913704B4B1B682A
:101DD40013F4006F06D04A4B93F86530022B01D1FF
:101DE400FFF76CFD454B1B6813F400520CD0444BB9
:101DF40093F86730022B04D0042B07D1414B012206
:101E04009A70FFF75BFD01E03E4B9A703B4B1B68F9
:101E140013F480420CD03A4B93F86830022B04D070
:101E2400042B07D1374B0122DA70FFF747FD01E09D
:101E3400344BDA70314B1B6813F400420CD0304B36
:101E440093F86930022B04D0042B07D12D4B0122C7
:101E54001A71FFF733FD01E02A4B1A71274B1B68F7
:101E640013F480320CD0264B93F86A30022B04D042
:101E7400042B07D1234B01225A71FFF71FFD01E008
:101E8400204B5A711D4B1B6813F400320CD01C4BB1
:101E940093F86B30022B04D0042B07D1194B012289
:101EA4009A71FFF70BFD01E0164B9A71134B1B68F7
:101EB40013F480220CD0124B93F86C30022B04D014
:101EC400042B07D10F4B0122DA71FFF7F7FC01E075
:101ED4000C4BDA71094B1B6813F4002214D0084B25
:101EE40093F86D30022B04D0042B0FD1054B012243
:101EF4001A72FFF7E3FC09E098110020CC0F0020D0
:101F0400DC1200207C0F0020354B1A72354BDA8B23
:101F140040F2BE7302EA0303002B5FD1324B1B680D
:101F240013F4805F06D0314B93F86630032B01D154
:101F3400FFF7EAFB2C4B1B6813F4005F06D02B4B16
:101F440093F86730032B01D1FFF7DEFB264B1B68A8
:101F540013F4804F06D0254B93F86830032B01D13E
:101F6400FFF7D2FB204B1B6813F4004F06D01F4B26
:101F740093F86930032B01D1FFF7C6FB1A4B1B689A
:101F840013F4803F06D0194B93F86A30032B01D128
:101F9400FFF7BAFB144B1B6813F4003F06D0134B36
:101FA40093F86B30032B01D1FFF7AEFB0E4B1B688C
:101FB40013F4802F06D00D4B93F86C30032B01D112
:101FC400FFF7A2FB084B1B6813F4002F06D0074B46
:101FD40093F86D30032B01D1FFF796FB10BDC0467B
:101FE4007C0F0020A8130020CC0F0020DC1200205E
:101FF40010B5804BDA8B40F2BE7302EA0303002B68
:1020040040F081807C4B1A78CAB19B78012B16D1A1
:10201400082A0FD005D8022A0CD0042A0AD0012A93
:1020240007E0202A06D001D8102A02E0402A01D075
:10203400802A01D1FFF768FB6F4B00229A706E4A29
:10204400537803B913706D4B1B6813F4805F06D08B
:102054006B4B93F86630032B01D1FFF755FB674BAD
:102064001B6813F4005F06D0654B93F86730032BAD
:1020740001D1FFF749FB614B1B6813F4804F06D075
:102084005F4B93F86830032B01D1FFF73DFB5B4BAB
:102094001B6813F4004F06D0594B93F86930032B97
:1020A40001D1FFF731FB554B1B6813F4803F06D079
:1020B400534B93F86A30032B01D1FFF725FB4F4BA9
:1020C4001B6813F4003F06D04D4B93F86B30032B81
:1020D40001D1FFF719FB494B1B6813F4802F06D07D
:1020E400474B93F86C30032B01D1FFF70DFB434BA7
:1020F4001B6813F4002F06D0414B93F86D30032B6B
:1021040001D1FFF701FB3D4B1B6813F4006F06D0B0
:102114003B4B93F86530022B01D1FEF7C1F9374BE5
:102124001B6813F4005207D0354B93F86730022B29
:1021340004D1FFF7C3FB01E0324B9A702F4B1B68AD
:1021440013F4804207D02E4B93F86830022B04D14D
:10215400FFF7B4FB01E02B4BDA70284B1B6813F438
:10216400004207D0264B93F86930022B04D1FFF7C5
:10217400A5FB01E0234B1A71204B1B6813F480323A
:1021840007D01F4B93F86A30022B04D1FFF796FB5C
:1021940001E01C4B5A71194B1B6813F4003207D031
:1021A400174B93F86B30022B04D1FFF787FB01E048
:1021B400144B9A71114B1B6813F4802207D0104BF7
:1021C40093F86C30022B04D1FFF778FB01E00D4B40
:1021D400DA710A4B1B6813F4002207D0084B93F8FA
:1021E4006D30022B04D1FFF769FB01E0054B1A7235
:1021F40010BDC046A813002098110020CC0F002069
:10220400DC1200207C0F002010B5574AD38B13F04A
:10221400010440F0A68092F84A30042B0AD15349B5
:10222400534A0B781C2000FB03235B694C721B7917
:102234000B7098E0052B40F096804E4A92F82D30B2
:10224400002B3CD1D37E0BBB4B4A136813F0010F18
:1022540006D0136813F0040F02D0FEF705FD15E055
:10226400454A136813F0020F06D0136813F0080FE1
:1022740002D0FEF799FD09E0FFF7BAFE3C4A0123BC
:1022840013705370394A013BD3721373394BDB7E9D
:10229400013BDBB2012B66D8374A136813F0010FF8
:1022A40048D1136813F002044DD1FFF7A1FE304B5F
:1022B40001221A705A702D4BDC721C7353E0012BEF
:1022C40051D1D37ED3B92D4CB4F84A00FEF716FE93
:1022D400012805D1B4F84A00FEF746FE012829D0AA
:1022E400264CB4F84A00FEF755FF01282ED1B4F865
:1022F4004A00FEF787FF012828D124E0013BDBB226
:10230400012B30D892F82C305BB91C4CB4F84A003D
:10231400FEF7F4FD01280DD0B4F84A00FEF73AFFA9
:1023240010E0012B1FD1154BB3F84A00FEF71CFE39
:10233400012802D1FEF798FC15E0104BB3F84A00CF
:10234400FEF760FF10B9FEF72FFD0CE0FFF750FE1B
:10235400074A012313705370044A013BD372137369
:1023640001E0FEF7FDFB10BDA81300207C0F002048
:102374000000002018190020CC0F0020DC120020DF
:1023840070B5204B204C1A8C998EDB8D8918C91896
:1023940089B201221D48E18401F070FB1C4A01212D
:1023A400D38B1C4E23F04003D3831B4B1C25197085
:1023B4004FF06403A2F84830237805FB03635B699C
:1023C4009B7A23702378227805FB0363217805FB2D
:1023D400026205FB01611869136980681A680B6958
:1023E40011881A7901F04AFBA37B012B07D12378CA
:1023F40005FB03635B69DB7A23700023A373FEF799
:10240400CDFB70BDDC1200207C0F00206C1000207E
:10241400A8130020000000207810002070B5134C91
:10242400134E23781C2505FB03635B691B7923701A
:102434002378227805FB0363217805FB026205FB00
:1024440001611869136980681A680B6911881A791F
:1024540001F014FBA37B012B07D1237805FB036355
:102464005B695B7923700023A37370BD7C0F00202C
:102474000000002070B50F4DAC7B012C16D12B78D9
:102484000D4A1C2101FB03235B6922469B7A0B48FE
:102494002B700B4B998E01F0F1FA0A4AD38B23F07F
:1024A4004003D383084B1C700023AB73FEF776FB09
:1024B40070BDC0467C0F0020000000206C1000207E
:1024C400DC120020A8130020781000200E4970B5FB
:1024D4000B780E4C1C2000FB03435B691B790B70CB
:1024E4000B780A7800FB034300FB024209781D695C
:1024F40000FB01411369A8681A680B6911881A79ED
:1025040001F0BCFA70BDC0467C0F00200000002022
:102514000E4970B50B780E4C1C2000FB03435B691D
:102524001B790B700B780A7800FB034300FB024213
:1025340009781D6900FB01411369A8681A680B69D1
:1025440011881A7901F09AFA70BDC0467C0F0020F8
:102554000000002070B5774DAB7A43B9764B7748CD
:10256400998F012201F08AFA0123AB72E0E0012184
:10257400724801F08BFA012840F0DA80704A92F830
:102584002D30002B60D1D17E00292DD16D4A1368E6
:1025940013F0010F06D1136813F0040F02D12123A5
:1025A4002B7021E0674A136813F0010F05D11368FB
:1025B40013F0040F01D01F2214E0624A136813F0D1
:1025C400010F05D0136813F0040F01D1202209E094
:1025D4005C4A136813F0010F06D0136813F0040F5C
:1025E40002D01822534B1A704B1EDBB2012B00F29F
:1025F4009680544A136813F0010F20D1504B93F87E
:102604002E30002B00F08880012B40F08880494B4D
:1026140004221A701A784C4C18781C2101FB0040D3
:102624001D7801FB024201FB0545036916691A681E
:102634002B691188B0681A7901F020FA6FE01368E9
:1026440013F0010F6BD060E0012B68D1D37E002B17
:1026540038D1394CB4F84A00FEF750FC012808D1AF
:10266400B4F84A00FEF780FC012802D118232B702D
:1026740055E0314CB4F84A00FEF740FC28B9B4F8F0
:102684004A00FEF771FC012846D02B4CB4F84A00EE
:10269400FEF734FC012806D1B4F84A00FEF764FCC6
:1026A40008B9202239E0244CB4F84A00FEF726FC8D
:1026B400002834D1B4F84A00FEF756FC00282ED185
:1026C40021222AE0013BDBB2012B28D892F82C30DE
:1026D4007BB9194CB4F84A00FEF710FC012801D16B
:1026E400182305E0B4F84A00FEF708FC08B91F23D4
:1026F4002B70134B93F82C30012B10D10E4CB4F8E3
:102704004A00FEF731FC012801D1182205E0B4F893
:102714004A00FEF729FC10B91F22064B1A700A4A18
:10272400012313705370034A013BD37213739372E2
:1027340070BDC0467C0F0020DC120020A8100020D1
:1027440018190020CC0F00200000002070B5724D35
:10275400AB7A43B9714B7248998F012201F08EF91B
:102764000123AB72D6E001216D4801F08FF90128F5
:1027740040F0D0806B4A92F82D30002B5ED1D17E90
:1027840000292DD1684A136813F0020F06D113688B
:1027940013F0080F02D11C232B7021E0624A136846
:1027A40013F0020F05D1136813F0080F01D01A2299
:1027B40014E05D4A136813F0020F05D0136813F098
:1027C400080F01D11B2209E0574A136813F0020FC6
:1027D40006D0136813F0080F02D01E224E4B1A7055
:1027E4004B1EDBB2012B00F28C804F4A136813F0AE
:1027F40002011DD14B4B93F82E30002B7ED0012BC0
:102804007FD1454B494C19701A7818781C2101FB6B
:1028140000401D7801FB024201FB0545036916696E
:102824001A682B691188B0681A7901F027F968E0F1
:10283400136813F0020F64D01E2260E0012B60D1F4
:10284400D37E002B34D1354CB4F84A00FEF7A2FCF9
:10285400012805D1B4F84A00FEF7D4FC012845D07C
:102864002E4CB4F84A00FEF795FC28B9B4F84A0097
:10287400FEF7C8FC012841D0284CB4F84A00FEF702
:1028840089FC012806D1B4F84A00FEF7BBFC08B95C
:102894001B2234E0214CB4F84A00FEF77BFC0028EC
:1028A4002FD1B4F84A00FEF7ADFC50BB1C2226E041
:1028B400013BDBB2012B24D892F82C306BB9174CB6
:1028C400B4F84A00FEF766FC01280FD0B4F84A00B9
:1028D400FEF760FCA8B91A2309E0012B11D10F4CB3
:1028E400B4F84A00FEF78EFC012802D11E232B7097
:1028F40007E0B4F84A00FEF785FC10B91A22064B2B
:102904001A700A4A012313705370034A013BD372AD
:102914001373937270BDC0467C0F0020DC1200203C
:10292400A810002018190020CC0F0020000000205F
:102934002DE9F04F934B87B093F82D30002B40F0E6
:102944009180914A1378182B02D013781E2B06D14C
:102954008E4B00221A705A708B4BDA721A73894D9F
:1029640095F82E40002C74D1884E3378A3B9884B47
:10297400ED8B02219D86874801F088F801280446E2
:1029840029D1854B8548B3F84010224601F076F8EA
:102994007D4B3470DC721EE07B4EF17A012917D135
:1029A4007E4801F073F80128024614D17A4B7B4823
:1029B400B3F8401001F062F87549EB8C8A8E03F588
:1029C400FA739A42C6BFA2F5FA738B86F47202E0D8
:1029D4006F4BED8C9D866D4D6B78B3B9694A6C4B2A
:1029E400128C0221DA866E4801F050F80128044660
:1029F40040F07581684B6B48B3F84010224601F0F3
:102A04003DF8614B6C701C7369E15F4C217B0129BB
:102A14001AD1644801F03AF80128024640F05F8177
:102A24005D4B6048B3F8401001F028F8554B584905
:102A3400DB8CCA8E03F5FA739A4202DDA2F5FA73AF
:102A44004CE1002323734AE14E4A514BD28CDA867F
:102A540045E1012C40F04381534B4FF4FA70188147
:102A640058813CE1012B40F03A81474B1B782B2BDA
:102A740005D1494BB3F84820454B9A86DA86424A39
:102A84001378122B05D01378132B02D01378142B40
:102A940004D13C4BDA8C3E4B9A86DA863A4A137858
:102AA4001F2B09D01378202B06D01378212B03D0A9
:102AB4001378272B40F08D803C4B324AB3F800B09A
:102AC400354B108FB3F84860394BD58B1B88A91B45
:102AD400434301914FF4616193FBF1F39FB2938EF1
:102AE400B2F83680A3F1140CC8EB0C03DB1B029381
:102AF40092F82C30548EB2F830A0B2F82090F3B98A
:102B040000FB0BF3224893FBF1F399B2028E631A94
:102B14009A421CDC0AF114039A4229DD838EB342E3
:102B240026D9A4F11403CAEB0303C1EB030A019BE6
:102B3400121B93FBFAFA1FFA8AF3521815E0012BC1
:102B440016D1134807EB0802418E914201DA8586BB
:102B54000EE061450CDA838EB34209D9029B019CD5
:102B6400521A94FBF3FA1FFA8AF302FB0353838687
:102B7400074807EB0802418E91421BDAA0F8369011
:102B840027E0C046181900207C0F00200000002018
:102B9400A813002058100020DC120020C0100020D0
:102BA40074100020A0100020C41000205010002039
:102BB4006810002061450CDAC38EB34209D9029C27
:102BC400C6EB090393FBF4F39BB2521A02FB039383
:102BD400C386444A13781A2B08D013781B2B05D0CC
:102BE40013781C2B02D01378262B78D13E4B3F4A06
:102BF4001C883F4B108FB3F84880538ED58B0493B9
:102C04003C4BC8EB05011B8803914343978E4FF45B
:102C1400616193FBF1F3B2F836909EB2A7F114030D
:102C2400C9EB03039B1B059392F82C30B2F830B028
:102C3400B2F820A0FBB900FB04F32F4893FBF1F397
:102C44009CB2028E04EB0B0C62451BDB049BA3F1CC
:102C540014018A4229DA838E434526D9CBEB01033A
:102C64001B1B039CC2EB0C0294FBF3F39BB202FB11
:102C74000353838619E0012B17D11F48BB1B418ED8
:102C8400994201DD858610E009F1140399420CDDB7
:102C9400838E434509D9039B059C93FBF4F2CB1B1C
:102CA40092B29B1903FB025282861349BB1B4A8EC4
:102CB4009A4202DDA1F836A011E009F114039A4208
:102CC4000DDDCB8E43450AD90598C8EB0A0393FB67
:102CD400F0F3D21B9BB2921902FB03A3CB8607B07D
:102CE400BDE8F08F7C0F0020501000201819002040
:102CF400DC12002068100020A813002070B5304CAE
:102D040063784BB92F4B3048B3F84210022200F0DD
:102D1400B5FE0123637052E002212B4800F0B6FE99
:102D240001284CD1294AD37E0BB927330CE0013B4F
:102D3400DBB2012B1DD892F82E3013B91F33237048
:102D440017E0012B15D10333237021482378217810
:102D54001C2202FB030302FB010124781D6902FB10
:102D640004040B69A8681968236909881A7900F0B2
:102D740085FE164B124D198D124B0A22DB8F00244F
:102D8400144EB3FBF2F3CB181348022285F8244007
:102D940085F82040338000F071FE1048318802220B
:102DA40000F06CFE0A4BEC721C705C702C7385F89E
:102DB40023406C7385F8214085F822406C7070BD07
:102DC4007C0F0020DC120020701000201819002055
:102DD4000000002060100020741000205810002013
:102DE40070B5324C63784BB9314B3248B3F842106A
:102DF400022200F043FE0123637055E002212D48B6
:102E040000F044FE01284FD1002384F820302A4BDF
:102E1400DB7EB3B9263323702848237821781C221B
:102E240002FB030302FB010124781D6902FB040475
:102E34000B69A8681968236909881A7900F01EFECD
:102E440005E0013BDBB2012B01D81A232370184C97
:102E5400194BB4F84220188D0A25B2FBF5F141183C
:102E6400174B89B21980E38F164ED21892FBF5F2F4
:102E7400801830800222144800F000FE0222134819
:102E8400318800F0FBFD0D4B00221A705A70074B7D
:102E9400DA721A7383F8212083F8222083F823201E
:102EA40083F824205A735A7070BDC0467C0F0020EA
:102EB400DC120020701000201819002000000020EF
:102EC40060100020A410002058100020741000206E
:102ED400324A10B59178002968D1D378002B65D196
:102EE4001379002B62D15379002B5FD19379002B96
:102EF4005CD1D379002B59D1137A002B56D1284BAE
:102F040093F82F30012B0ED1264BDB8B13F0200FBF
:102F140092F8233010D1012B1ED1204B012283F8CB
:102F24002420013A0BE0022B16D11E4BDB8B13F04D
:102F3400200F07D092F8233073B9184B012283F87D
:102F4400232009E092F823301449012B04D1013BDA
:102F540081F8203081F82330114B998B99B10F4CB3
:102F640094F820303BB91048032200F087FD012378
:102F740084F8203007E003210B4800F087FD012886
:102F840008BF84F82400054A92F82430012B40F04D
:102F9400838024331370002353707DE07C0F002062
:102FA40018190020A813002064100020774B93F810
:102FB4006730042B0AD1012908D1754B1B6813F41F
:102FC400005203D1734B83F824109A706F4B93F81B
:102FD4006830042B0BD16F4AD178012907D16C4B8F
:102FE4001B6813F4804304BF82F82410D370674B2A
:102FF40093F86930042B0BD1664A1179012907D162
:10300400634B1B6813F4004304BF82F8241013714C
:103014005E4B93F86A30042B0BD15E4A5179012937
:1030240007D15B4B1B6813F4803304BF82F8241070
:103034005371564B93F86B30042B0BD1554A91794D
:10304400012907D1524B1B6813F4003304BF82F8E3
:10305400241093714D4B93F86C30042B0BD14D4AD3
:10306400D179012907D14A4B1B6813F4802304BF8B
:1030740082F82410D371454B93F86D30042B0BD197
:10308400444A117A012907D1414B1B6813F40023E8
:1030940004BF82F8241013723D4B1B6813F4805F45
:1030A40003D03C4B012283F82420384B93F867303B
:1030B400032B08D1364B1B6813F4005F03D0354B48
:1030C400012283F82420314B93F86830032B08D174
:1030D4002F4B1B6813F4804F03D02E4B012283F82F
:1030E40024202A4B93F86930032B08D1284B1B6802
:1030F40013F4004F03D0274B012283F82420234BE1
:1031040093F86A30032B08D1214B1B6813F4803FDA
:1031140003D0204B012283F824201C4B93F86B30FE
:10312400032B08D11A4B1B6813F4003F03D0194B2F
:10313400012283F82420154B93F86C30032B08D11B
:10314400134B1B6813F4802F03D0124B012283F816
:1031540024200E4B93F86D30032B08D10C4B1B68C5
:1031640013F4002F03D00B4B012283F824200949C8
:1031740091F82430012B07D10022273381F8242031
:1031840081F820200B704A7010BDC046DC1200206C
:10319400CC0F00207C0F002070B5954D40F2BE731B
:1031A400EA8B944C02EA0303002B40F01E81637AFD
:1031B4003BB9914B9148598F012200F05FFC0123E8
:1031C40014E101218D4800F061FC012840F00F81D9
:1031D4008B4991F82D30002B7BD1CB7E002B36D13F
:1031E400884A136813F0010F03D0136813F0040F17
:1031F40036D1844A136813F0010F0CD1136813F00D
:10320400040F08D07B48804A03781C2101FB032368
:103214005B691B7919E07B4A136813F0010F03D033
:10322400136813F0040F08D0764A136813F0010FE3
:103234004FD1136813F0040F4BD16E48724A0378D0
:103244001C2101FB03235B695B79037041E0013BB3
:10325400DBB2012B3DD86B4A136813F0010F0BD07E
:103264002378694A1C2101FB03235B69DB79237002
:10327400052385F84A302CE0136813F0010F28D198
:1032840091F82E3043B923785F4A1C2101FB0323B4
:103294005B691B7923701CE0012B1AD155495A4CE8
:1032A4000B781C2000FB03435B695B7A0B700B7883
:1032B4000A7800FB034300FB024209781D6900FB06
:1032C40001411369A8681A680B6911881A7900F01A
:1032D400D5FB4B4A92F82D30012B7ED1D37E002BA7
:1032E40043D1454CB4F84A00FDF708FE012805D146
:1032F400B4F84A00FDF738FE012852D03E4CB4F829
:103304004A00FDF7FBFD28B9B4F84A00FDF72CFE8E
:10331400012859D0384CB4F84A00FDF7EFFD0128D4
:103324000DD1B4F84A00FDF71FFE40B93148364AC2
:1033340003781C2101FB03235B695B794CE02E4C71
:10334400B4F84A00FDF7DAFD002846D1B4F84A0083
:10335400FDF70AFE002840D126482B4A03781C2199
:1033640001FB03235B699B7936E0013BDBB2012B54
:1033740033D892F82C305BB91F4CB4F84A00FDF7EF
:10338400BDFD01280DD0B4F84A00FDF7B7FD1AE0E1
:10339400012B22D1184CB4F84A00FDF7E5FD0128B1
:1033A4000DD11448184A03781C2101FB03235B69DF
:1033B4000522DB7903700E4B83F84A200DE0B4F844
:1033C4004A00FDF7D1FD40B90A480F4A03781C2191
:1033D40001FB03235B691B790370064A00235372C4
:1033E40082F8213082F8223001E00023637270BD3C
:1033F400A81300207C0F0020DC120020A81000205D
:1034040018190020CC0F00200000002010B5444BF8
:10341400444A1B68444813F0200F15BFD38BD38B49
:1034240043F0010323F00103D3833D4B3D4A1B6862
:1034340013F0100F15BFD38BD38B43F0200323F06D
:103444002003D383364B374A1B6813F0400F15BF54
:10345400D38BD38B43F0020323F00203D383304B8B
:10346400304A1B6813F0800F15BFD38BD38B43F006
:10347400040323F00403D383294B2A4A1B6813F45F
:10348400807F15BFD38BD38B43F0080323F008034D
:10349400D383234B234A1B6813F4007F15BFD38BBC
:1034A400D38B43F0100323F01003D3831F4B93F803
:1034B40021201F4B5B7E9A421A4A2BBFD38BD38B9E
:1034C40043F4007323F40073D383184B93F822203E
:1034D400174B9B7E9A42134A2BBFD38BD38B43F457
:1034E400806323F480630121D38300F0CFFA0128A1
:1034F40014D110490B4A0B78012B05D1013B0B70F9
:10350400D38B23F0400302E0D38B43F04003D383F7
:10351400094B0548998D012200F0B0FA10BDC04650
:10352400CC0F0020A81300206C1000207C0F00207A
:103534001819002078100020DC12002010B50D4C62
:103544000D4AB4F8483013800123137603F064FF66
:103554004FF064030948A4F84830032384F84A3040
:10356400074A03781C2101FB03235B691B79037061
:1035740010BDC046A8130020681300207C0F002053
:103584000000002070B51C469DF814309DF81050C2
:103594009DF818C09DF81CE043B9BEF1010F0BD192
:1035A400012A09D1012C04D1012D01E0BCF1010F44
:1035B40002D106F0E5FF01E006F0E4FF70BDC0466D
:1035C4002DE97F43A748A84903781C2202FB031373
:1035D4009B6923B1037802FB03139B699847A148B5
:1035E400A14903781C2202FB0313DB6923B103788E
:1035F40002FB0313DB6998479A489B4903781C2212
:1036040002FB03135B695BB1037802FB03135B6981
:103614001B682BB1037802FB03135B691B68984793
:10362400904C914E23781C2505FB03631B69002BEA
:103634002AD02378227805FB036305FB026219690B
:1036440013698868197900F021FA01281CD12378BC
:1036540005FB03631B695B792370237805FB036314
:103664001B698BB12378227805FB036305FB026297
:103674002178186905FB0161136980681A680B6970
:1036840011881A7900F0FAF9764D774C2B781C26BC
:1036940006FB0343DB680122D3F80C802B787348C4
:1036A40006FB0343DB68DFF8EC91DB68D98800F0A4
:1036B40099FA88F800002B78012206FB0343DB68A3
:1036C4006B48D3F80C802B7806FB0343DB68DB687C
:1036D400198900F087FA88F801002B78012206FB8B
:1036E4000343DB686348D3F80C802B7806FB034361
:1036F400DB68DB68598900F075FA88F802002B78DA
:10370400012206FB0343DB685B48D3F80C802B786B
:1037140006FB0343DB68DB68998900F063FA88F8E9
:1037240003002B78012206FB0343DB685348D3F8DC
:103734000C802B7806FB0343DB68DB68D98900F037
:1037440051FA88F804002B78012206FB0343DB6856
:103754004B48D3F80C802B7806FB0343DB68DB680B
:10376400198A00F03FFA88F805002B78012206FB3D
:1037740003435B684348D3F808802B7806FB034374
:103784005B689B68D98800F02DFA88F800002B78D4
:10379400012206FB03435B683B48D3F808802B787F
:1037A40006FB03435B689B68198900F01BFA88F8E1
:1037B40001002B78297806FB0343287806FB014196
:1037C40006FB0040DB684FF001081A78CB68C1683B
:1037D4009B68C9681B7809782C48009194F82A15CD
:1037E400CDF80C80019199F8021002910821FFF79D
:1037F400C9FE2B78297806FB0343287806FB014190
:1038040006FB0040DB685A78CB68C1689B68C968CE
:103814005B7849781E48009194F82B15CDF80C80FC
:10382400019199F8031002914FF40041FFF7AAFEA9
:103834002B78297806FB0343287806FB014106FB15
:103844000040DB689A78CB68C1689B68C9689B783C
:1038540089780E48009194F82C15CDF80C800191CC
:103864001AE0C0467C0F002000000020E810002071
:10387400AC110020B4110020541100203811002094
:10388400A41100209C110020F0100020000C014025
:1038940000080140C410002099F8041002914FF46C
:1038A4000061FFF76FFE2B78297806FB0343287825
:1038B40006FB014106FB0040DB68DA78CB68C1688F
:1038C4009B68C968DB78C9786548009194F82D1520
:1038D400CDF80C80019199F8051002914FF48061A4
:1038E400FFF750FE2B78297806FB0343287806FB64
:1038F400014106FB0040DB681A79CB68C1689B680C
:10390400C9681B7909795648009194F82E15CDF8A9
:103914000C80019199F8061002912021FFF732FEE4
:103924002B78297806FB0343287806FB014106FB24
:103934000040DB685A79CB68C1689B68C9685B79C9
:1039440049794848009194F82F15CDF80C800191DD
:1039540099F8071002914FF40051FFF713FE2B78EA
:10396400297806FB0343287806FB014106FB004047
:103974005B681A784B6841685B6889681B780978CA
:103984003948009194F82815CDF80C80019199F8E4
:10399400001002914FF48061FFF7F4FD2B78297831
:1039A40006FB0343287806FB014106FB00405B68E5
:1039B4005A784B6841685B6889685B7849782A481B
:1039C400009194F82915CDF80C80019199F8011013
:1039D40002914FF40071FFF7D5FD2B78204806FBC8
:1039E40003439B689A780023009394F83215CDF82A
:1039F4000C80019199F80C1002910421FFF7C2FD8B
:103A04002B782A7806FB034306FB02429B6817487F
:103A14005B68198893681A7894F83035CDF8088073
:103A24000093B9F808300193114BFCF709FD2B788A
:103A34002A7806FB034306FB02429B680D485B6839
:103A4400598893685A7894F83135CDF808800093F2
:103A5400B9F80A300193084BFCF7F2FCBDE87F8308
:103A6400000C01400010014000080140002C0140FE
:103A7400D1AE000800040040D5AE0008024B53F854
:103A840022305B18036070473C110020044B00682F
:103A940053F82130984214BF002001207047C046DB
:103AA4003C1100203B4B4FF0000210B53A481A81FC
:103AB4005A8164210122FFF7E1FF37480121FFF712
:103AC400E5FF0028F9D001210A463448FFF7D6FF64
:103AD400032101223248FFF7D1FF6421012231483A
:103AE400FFF7CCFF032101222F48FFF7C7FF642112
:103AF40001222E48FFF7C2FF642101222C48FFF760
:103B0400BDFF642101222B48FFF7B8FF6421012285
:103B14002948FFF7B3FF642101222848FFF7AEFFCD
:103B2400642101222648FFF7A9FF642125480122C8
:103B3400FFF7A4FF642124480122FFF79FFF2821F7
:103B440001222248FFF79AFF642101222048FFF74F
:103B540095FF204B5B7C012B01D0022B01D10F225E
:103B640011E01D4A92F82E3053B9D37E1B4A13B983
:103B74004FF4C07301E04FF08003D383292202E0A5
:103B8400012B02D11122164B1A70144B042283F814
:103B94004A2010BDC4100020DC100020D4100020E6
:103BA400E0100020A0110020B81100209C1100207A
:103BB400F0100020E8100020AC110020B411002007
:103BC4005411002038110020A4110020E41000201A
:103BD4007C100020DC12002018190020A8130020FB
:103BE4007C0F002010B50C460C499446036851F82C
:103BF400222093420FD10A4A1378012B05D151F8A0
:103C04002C301B190360002304E051F82C301B19DD
:103C1400036001231370024B187810BD3C1100207F
:103C2400C00F00200021034B01225A5489180B298C
:103C3400F9D17047280500200022074900238B543E
:103C440001320B2AF9D101338B70CB700B714B719C
:103C54008B71CB717047C046280500200021034BAF
:103C640000225A5401310E29F9D17047C4100020A2
:103C7400144B70B50D46064659889A882C464FF069
:103C8400000C4FF6FF7015E016F80C300022584077
:103C94000CF101031FFA83FC00F00101400821B17B
:103CA4004AF2010380EA030398B20132082AF3D1ED
:103CB400631E9CB2002CE7D1024B5980DD80188131
:103CC4009A8070BDC00F002010B5DDF808C004460E
:103CD40018460AB311B940F206410FE0012902D196
:103CE40040F2EA610AE0022902D14FF42F6105E0B3
:103CF40040F60A7303290CBF19460021094A938C24
:103D0400CB1A9C4201DA036803E0D38CA342036814
:103D140003D843EA0C0302E01B6823EA0C030360A4
:103D240010BDC046DC120020564A00231370564BC7
:103D34001B78122B01D110231370534B1B78132BB8
:103D440004D1504A137843F0200313704E4B1B7870
:103D5400142B04D14B4A137843F0300313704A4BAD
:103D64001B781F2B04D1474A137843F010031370B8
:103D7400454B1B78202B04D1424A137843F020038F
:103D84001370414B1B78212B04D13E4A137843F026
:103D9400300313703C4B1B781A2B04D1394A137827
:103DA40043F001031370384B1B781B2B04D1354AA5
:103DB400137843F002031370334B1B781C2B04D18C
:103DC400304A137843F0030313702F4B1B78262BD0
:103DD40004D12C4A137843F0010313702A4B1B7847
:103DE400272B04D1274A137843F020031370264B62
:103DF4001B78032B04D1234A137843F01003137068
:103E0400214B1B78072B04D11E4A137843F001037E
:103E140013701D4B1B782B2B33D11C4B1B78212B80
:103E24002FD11B4B997A11F0040F13D0194B1B7827
:103E3400012B0AD9184B93F82C3023B9114A137863
:103E440043F0200305E0012B04D10E4A137843F01C
:103E54001003137011F0100F13D00E4B1B78012BAD
:103E64000AD90D4B93F82C3023B9064A137843F042
:103E7400020305E0012B04D1024A137843F0010345
:103E840013707047BC0F00207C0F00205C130020CF
:103E9400C00F00200C10002018190020234A1378AA
:103EA400102B04D91378162B01D800223AE01F4AAC
:103EB4001378262B08D013781A2B05D013781B2BD4
:103EC40002D013781C2B01D103222BE01378272B6B
:103ED40008D013781F2B05D01378202B02D0137829
:103EE400212B01D106221DE013781D2B01D10522BF
:103EF40018E01378192B01D1022213E00B4A13782E
:103F04001E2B01D104220DE01378182B01D10122BC
:103F140008E01378222B01D1082203E01378232B25
:103F240002D10722024BDA737047C0467C0F00208F
:103F3400A81300200146002800F05981012801D06F
:103F4400042874D17E4A1378002B69D01378012B8E
:103F540066D01378022B63D01378032B60D01378C8
:103F6400042B5DD01378052B5AD01378062B57D029
:103F74001378072B54D01378082B51D01378092BBE
:103F84004ED013780A2B4BD013780B2B48D01378D0
:103F94000C2B45D013780D2B42D01378102B3FD027
:103FA4001378112B3CD01378122B39D01378132BA0
:103FB40036D01378142B33D01378152B30D01378D4
:103FC400162B2DD013781A2B2AD013781B2B27D01D
:103FD40013781C2B24D013781F2B21D01378202B7B
:103FE4001ED01378212B1BD01378252B18D01378CF
:103FF400282B15D01378262B12D01378272B0FD00B
:104004001378292B0CD013782A2B09D013782C2B56
:1040140006D013782D2B03D013782E2B40F0E78095
:10402400012900F0E680042940F0E48081E00228C0
:1040340000F0A680032840F09080414A1378002BBA
:1040440077D01378012B74D01378022B71D01378A6
:10405400032B6ED01378042B6BD01378052B68D008
:104064001378062B65D01378072B62D01378082BAE
:104074005FD01378092B5CD013780A2B59D01378AE
:104084000B2B56D013780C2B53D013780D2B50D008
:1040940013780F2B4DD01378102B4AD01378112B93
:1040A40047D01378122B44D01378132B41D01378B4
:1040B400142B3ED01378152B3BD01378162B38D005
:1040C40013781A2B35D013781B2B32D013781C2B72
:1040D4002FD013781F2B2CD01378202B29D01378B2
:1040E400212B26D01378222B23D01378232B20D0F6
:1040F4001378242B1DD01378252B1AD01378282B52
:1041040017D01378262B14D01378272B11D01378BB
:10411400292B0ED013782A2B0BD013782B2B08D0F5
:1041240013782C2B05D013782D2B02D013782E2B3B
:104134000AD1044B1B78012B14BF0020012059E045
:104144007C0F00208C1000201378182B51D013788A
:10415400192B14BF002001204CE005280ED1264A5B
:104164001378262B45D013781A2B42D013781B2BA7
:104174003FD013781C2B3CD0134602E0062806D10E
:104184001D4B1B781E2B14BF0020012032E0072892
:1041940006D1194B1B78182B14BF0020012029E0ED
:1041A40008280AD1144B1B78182B22D0124B1B78E9
:1041B400232B14BF002001201CE0092804D10F4B3D
:1041C400DB8B03F0010015E00A2813D10C4AD368F5
:1041D40013F0400F0DD1D36813F0800F09D1D368C9
:1041E40013F4807F05D1D368C3F3402002E000209C
:1041F40000E001207047C0467C0F0020A813002077
:10420400C00F00202F4A30B51378112B11D013782A
:10421400182B0ED01378192B0BD013781D2B08D024
:1042240013781E2B05D01378232B02D01378292B57
:104234000AD125490A8D4B8D9B18244A13808A8DF7
:10424400CB8D9B18224A1380204940F224420B88CC
:104254002048934288BF0A801D4940F224420B88BB
:10426400934288BF0A8018494FF461620B8D0B8614
:104274008B8D4B86154B1D88438E534393FBF5F36F
:10428400CB87038E534393FBF5F38B87104B1C882A
:10429400C38E534393FBF4F3A1F84230838E53430C
:1042A40093FBF4F3A1F840300B8E534393FBF5F3E7
:1042B400A1F844304B8E5A4392FBF4F2A1F8462005
:1042C40030BDC0467C0F0020A813002050100020F1
:1042D40068100020181900200A4B93F82E100129A9
:1042E4000FD1094B1B7813F0010F02D00022074BAA
:1042F40006E013F01002054B01D0197301E01A8196
:104304001A73704718190020BC0F0020C410002035
:1043140070B5049D1C4622B906F02CF9236848B9EF
:1043240006E0012A09D106F025F90128236801D104
:104334002B4301E023EA0503236070BD2DE9F3411B
:1043440001217748FFF7A2FB012840F05082754C09
:1043540000236370744B93F86430012B09D17348C4
:104364004FF4005106F006F918B9637843F00103DD
:1043740063706D4B93F86730012B09D16C4BDB688C
:1043840013F4005F04D0674A537843F00203537078
:10439400654B93F86830012B09D1654BDB6813F446
:1043A400804F04D05F4A537843F0040353705E4B4C
:1043B40093F86930012B09D15D4BDB6813F4004F8E
:1043C40004D0584A537843F008035370564B93F87B
:1043D4006A30012B09D1564BDB6813F4803F04D0BB
:1043E400504A537843F0100353704F4B93F86B309B
:1043F400012B09D14E4BDB6813F4003F04D0494A2A
:10440400537843F020035370474B93F86C30012BDF
:1044140009D1474BDB6813F4802F04D0414A537809
:1044240043F040035370404B93F86D30012B0BD194
:104434003F4BDB6813F4002F06D03A4A53786FEAF7
:1044440043636FEA53635370364C2378002B40F078
:104454008280A378002B7ED134484FF4005106F0BB
:1044640089F840B9304B93F86420012A73D123783A
:1044740043F001030CE02E4AD36813F4005F0AD022
:10448400294B93F86720012A65D1237843F002036E
:104494002370A2705FE0D36813F4804F08D0224BDE
:1044A40093F86820012A56D1237843F00403EFE7F8
:1044B400D36813F4004F08D01B4B93F86920012AEA
:1044C40049D1237843F00803E2E7D36813F4803F2B
:1044D40008D0154B93F86A20012A3CD1237843F085
:1044E4001003D5E7D36813F4003F08D00E4B93F8BC
:1044F4006B20012A2FD1237843F02003C8E7D36827
:1045040013F4802F16D0084B93F86C30012B22D172
:10451400044B1A7842F040021A7001229A701AE091
:10452400E010002098110020DC1200200008014057
:10453400C00F0020D36813F4002F0CD0A04B93F8C5
:104544006D10012907D19F4A137891706FEA436374
:104554006FEA536313709A4C9B4F94F854204FF0B6
:1045640001089A484FF4804107F10C030226CDF864
:104574000080FFF7CDFE94F855209548402107F1BF
:104584000C0304250096FFF7C3FE94F856209048C8
:10459400082107F10C030095FFF7BAFE082394F8ED
:1045A4005720294600938A4807F10C03FFF7B0FE11
:1045B4000C3594F859208648314607F10C030095D0
:1045C400FFF7A6FE202394F85B2081480093414620
:1045D40007F10C03FFF79CFE4FF4806394F86E2000
:1045E4007A4800934FF4005107F10C03FFF790FE53
:1045F4004FF4006394F86F2029460093754D764874
:1046040007F10C03FFF784FE4023288B94F8601015
:1046140094F85C20009307F10C03FFF755FB80230B
:10462400688B94F8611094F85D20009307F10C03F3
:10463400FFF74AFB4FF48073A88A94F8621094F849
:104644005E20009307F10C03FFF73EFB4FF4007369
:10465400E88A94F8631094F85F20009307F10C0340
:10466400FFF732FB59484FF4804105F083FF18B936
:104674003B6943EA080302E03B6923F001033B6121
:104684005348402105F076FF4F4A18B9136943F0A7
:10469400020302E0136923F0020313614C4808216A
:1046A40005F068FF484A18B9136943F0040302E0AF
:1046B400136923F0040313614548042105F05AFFEC
:1046C400414A18B9136943F0080302E0136923F05F
:1046D400080313613E48022105F04CFF3A4A18B919
:1046E400136943F0100302E0136923F0100313610C
:1046F4003748012105F03EFF334A18B9136943F0E6
:10470400200302E0136923F02003136130481021D1
:1047140005F030FF2C4A18B9136943F0400302E056
:10472400136923F0400313612948202105F022FF77
:10473400254A18B9136943F0800302E0136923F092
:1047440080031361234B9A8A1D4BD98B8A4204D26E
:104754001D4A136943F4807306E01B8C934204D210
:10476400194A136923F4807313611A4BDA8A8A4253
:1047740004D2154A136943F4007307E0104B1B8CF1
:10478400934204D2104A136923F4007313610F484F
:104794004FF4005105F0EEFE0B4A18B9136943F4C7
:1047A400806302E0136923F4806313610A481021D3
:1047B40005F0E0FE044A88B9136943F4006310E08D
:1047C400DC12002098110020C00F002000080140D6
:1047D40000100140A8130020000C0140136923F4C9
:1047E40000631361034803210122FFF747F9BDE881
:1047F400FC81C046E010002070B5844B93F82E3045
:10480400002B40F0E982824B1B78DBB901218148FF
:10481400FFF73CF90128044614D17F4B1A78012A8A
:1048240002D17C480A2104E07C4B7A48B3F8461054
:104834002246FFF723F97A4B4FF000021A80744B9B
:1048440001221A70724B1B78012B40F0C582744A06
:10485400138801339BB2012B138003D171480421C7
:1048640005F08EFE6E4B1B880A2B40F0B5826E4B12
:104874006E4E1B78082B00F2EF80DFE813F009007E
:10488400190034005100ED00ED00ED0066009600C3
:104894006749B2798B799A4204D1644BDA79CB793E
:1048A4009A4233D0634A137801331370002217E01D
:1048B4005F49B2798B799A420DD15C4BDA79CB7925
:1048C4009A4208D15C4B00221A705C4AD38B23F4C1
:1048D4008073D383C0E0584A1378013313700122E4
:1048E400574B1A70B8E0524C06212046FFF7C0F926
:1048F400544BE2791880A37903EB02239AB2524B0A
:104904001A802378012B09D1904207D1494B002208
:104914001A704A4AD38B23F08003DAE7454A71E0E0
:10492400434C06212046FFF7A3F9464BE279188051
:10493400A37903EB02239AB2434B1A802378012B09
:1049440001D19042BED03C4A5CE0394C052120465E
:10495400FFF78EF93B4BA2791880637903EB0223AE
:104964009AB2394B1A802378012B0FD190420DD182
:10497400E2782379314903EB02230B872D4B002284
:104984001A70CB8B23F08003CB8305E0294A13787C
:10499400132B01D801331370284B1A8F1B4B93F838
:1049A4002A309A42294A55D92CE0214C0521204627
:1049B400FFF75EF9234BA2791880637903EB022396
:1049C4009AB2214B1A802378022B0FD190420DD139
:1049D400E2782379194903EB02234B87164B002213
:1049E4001A70CB8B23F48073CB8303E0124A1378C1
:1049F40001331370114B5A8F044B93F82B309A42A6
:104A0400134A27D31378013325E0C0461819002030
:104A1400B20F0020E410002090060020DC120020D9
:104A2400B80F002000140140B60F002058110020D8
:104A3400F4100020BA0F0020BB0F0020A8130020A0
:104A4400B50F0020A8110020341100209D0F002074
:104A54009E0F002000231370844B1B78092B04D96C
:104A6400834AD38B43F08003D383824B1B78092B77
:104A740004D97F4AD38B43F48073D3837E4B7F4E18
:104A84001B787F48082B00F29B81DFE813F00900B4
:104A94003B0064009B00D200050135015B017F01EE
:104AA40000230822B370F3706FF05A03337102705D
:104AB4009233062101247148737134707270FFF7C8
:104AC400D7F8704BB07118806F4B000A1978F071E9
:104AD40099B96E4BDB7E13B9674B1C7010E0013B38
:104AE400DBB2012B0CD86A4B634A1B78012B02D131
:104AF4000433137004E0117002E05F4B02221A7059
:104B0400002225E000230822B370F3706FF05A03EB
:104B14003371027092330621022458487371347041
:104B24007270FFF7A5F8574BB0711880564B000A06
:104B34001978F07149B9564B4F4A1B78012B02D1B1
:104B44000433137003E0117001E04B4B1C7001221D
:104B5400504B1A7034E1102373700423B3714A4B21
:104B640000221B780121022413F0010F4348317005
:104B7400B270F17032717471F27101D0017204E09B
:104B840013F0100314BF047203723C490B7A13B977
:104B94004B728B7204E0364B9A8E130A4B728A72F4
:104BA400374B364C0D221A7020460B21FFF760F864
:104BB400344B07221880304BE072000A1A702073BD
:104BC4000222C5E7102373700423B3712E4B002215
:104BD4001B780221012413F0020F28483170B270AF
:104BE400F47032717171F27101D0017204E013F04A
:104BF400200314BF0472037220490B7A13B94B7259
:104C04008B7204E01A4BDA8E130A4B728A721C4BB5
:104C14001A4C0D221A7020460B21FFF729F8194B64
:104C240008221880144BE072000A1A7020730322C1
:104C34008EE7102373700123F3707371DB18B37163
:104C440009330024037009210C483470B4703471A2
:104C5400F4713472FFF70CF80A4B70721880064B2B
:104C6400000AB0721C70042272E7C046BA0F00201A
:104C7400A8130020BB0F0020B50F002058110020FE
:104C840080100020B0110020BC0F00201819002053
:104C940090060020B60F0020504C012333700F33D0
:104CA400628C73700223B3707371DB18B371327248
:104CB400130AA28CF371130A73720D230370002577
:104CC40047480B21F5703571B272FEF7D1FF454BA1
:104CD400F0721880E37E000A30731BB9424B06223F
:104CE4001A7007E0013BDBB2012B03D83E4B1D7069
:104CF4003E4B1D7005222BE73849022232701023E7
:104D0400B27072714A8C73700423B3713272130AD5
:104D14008A8CF371130A73720D23002403700B2120
:104D24002F48B272F4703471FEF7A2FF2D4BF0726B
:104D340018802D4B000A1C702D4B06221A703073FC
:104D44002A4B3CE026230121F37008230022037040
:104D5400317071710324224805317470B27032715C
:104D6400FEF786FF1F4BB07118801C4B000ADB7ED8
:104D7400F07113B91C4B1C7006E0013BDBB2012B34
:104D840002D8194B02221A700722E1E6032373703A
:104D94000824233300220225F370047001231048F1
:104DA400062173713570B2703271FEF761FF0D4BDD
:104DB400B0711880E0400C4BF0711D700C4B1C70EE
:104DC4000C4B074819780231C9B201F0FDF80A4BBF
:104DD40000221A70094B1A7070BDC04618190020C1
:104DE40058110020B0110020B50F002090060020BB
:104DF400B60F002080100020B30F0020B20F002057
:104E040010B53C4B997B91B93B4B3C4A1B6913F061
:104E1400010318BF4FF4E1731381374B374A1B6901
:104E240013F0020318BF4FF4E173538160E00129CA
:104E340011D1314B314A1B6913F0010308BF1370C0
:104E44002D4B18BF11701B692C4A13F0020318BFB5
:104E5400012353704CE0022938D1274B274A1B69A0
:104E640013F0010318BF01239370234B234A1B69DA
:104E740013F0020318BF0123D3701F4B1F4A1B6991
:104E840013F0040318BF012313711B4B1B4A1B6946
:104E940013F0080318BF01235371174B174A1B69FA
:104EA40013F0100318BF01231373134B134A1B6928
:104EB40013F0200318BF012393710F4B0F4A1B6992
:104EC40013F0400318BF0123D37111E003290FD15C
:104ED400094B1B6913F0080F05D009484FF4007102
:104EE40005F04EFB04E006484FF4007105F04AFB60
:104EF40010BDC046A8130020C00F0020C41000201D
:104F040000080140012110B59448FEF7BFFD0128B7
:104F140040F0F681924A1378002B40F09E809378FB
:104F2400002B40F09A808F4B1B7D072B00F295805D
:104F3400DFE803F00493182F43576B7F8A484FF43C
:104F4400807105F017FB874A40B9937A43F0020356
:104F54009372834A137843F0020312E0937A23F0A6
:104F6400020379E080484FF4807105F003FB7D4A29
:104F740058B9937A43F040039372794A137843F013
:104F8400400313700123937067E0937A23F0400386
:104F940062E075484FF4807105F0ECFA714A40B94B
:104FA400937A43F0200393726D4A137843F02003FD
:104FB400E7E7937A23F020034EE06B484FF48071C7
:104FC40005F0D8FA674A40B9937A43F01003937214
:104FD400634A137843F01003D3E7937A23F0100362
:104FE4003AE061484FF4807105F0C4FA5D4A40B973
:104FF400937A43F001039372594A137843F00103FF
:10500400BFE7937A23F0010326E057484FF48071F9
:1050140005F0B0FA534A40B9937A43F00803937207
:105024004F4A137843F00803ABE7937A23F008035D
:1050340012E04D484FF4807105F09CFA494A40B99A
:10504400937A43F004039372454A137843F00403BC
:1050540097E7937A23F004039372424B1B7D072B4B
:1050640000F24681DFE813F008002B004D007000C9
:10507400A000C300EB0018013B484FF4807105F019
:1050840079FA374A18B9537843F0020302E05378A7
:1050940023F0020353703448802105F06BFA314A3F
:1050A40018B9D36843F4002302E0D36823F400233F
:1050B400D3602D484FF4806105F064FA12E02A4869
:1050C400802105F057FA274A18B9D36843F480536E
:1050D40002E0D36823F48053D36023484FF4806103
:1050E40005F04EFA20484FF4006105F04BFA1E48D3
:1050F4004FF4805105F046FA1A4A137D01331375B3
:10510400F9E01948802105F035FA164A18B9D36830
:1051140043F4804302E0D36823F48043D36012480D
:105124004FF4807105F026FA0D4A18B9537843F00C
:10513400400302E0537823F0400353700A484FF4CD
:10514400806105F01FFA29E00748802105F012FA72
:10515400044A58B9D36843F480330AE0D4100020D9
:10516400D8100020C00F002000100140D36823F4A1
:105174008033D36063484FF4807105F0FBF9624AD1
:1051840018B9537843F0200302E0537823F0200346
:1051940053705C484FF4806105F0F2F959484FF4BC
:1051A400006105F0EDF9A2E75648802105F0E2F927
:1051B400564A18B9D36843F4802302E0D36823F431
:1051C4008023D3604F484FF4807105F0D3F94E4AE1
:1051D40018B9537843F0100302E0537823F0100316
:1051E400537048484FF4806105F0CCF921E04548FC
:1051F400802105F0BFF9454A18B9D36843F4005338
:1052040002E0D36823F40053D3603E484FF4807126
:1052140005F0B0F93C4A18B9537843F0010302E0B1
:10522400537823F00103537036484FF4806105F03E
:10523400A7F934484FF4006105F0A4F926E0314899
:10524400802105F097F9314A18B9D36843F4004333
:1052540002E0D36823F40043D3602A484FF48071FA
:1052640005F088F9284A18B9537843F0080302E096
:10527400537823F0080323484FF48061537005F0FA
:1052840081F920484FF4006105F07AF91D484FF484
:10529400805105F075F92FE71A48802105F06AF965
:1052A4001A4A18B9D36843F4003302E0D36823F4EC
:1052B4000033D36013484FF4807105F05BF9124A50
:1052C40018B9537843F0040302E0537823F004033D
:1052D40053700C484FF4806105F052F909484FF4BB
:1052E400006105F04DF907484FF4805105F048F985
:1052F400064B00221A75012105480A46FEF7BEFB3B
:1053040010BDC04600100140D8100020C00F00207E
:10531400D410002010B501211948FEF7B7FB01286D
:1053240004460BD11748214605F02AFF164B0022EC
:105334005A75134803212246FEF7A0FB124A537DF7
:10534400012B1BD1013B5375104A114913880B8261
:1053540053884B8293888B82D388CB8213890B83A7
:1053640053894B83938905229BB28B83C3F5DA63FC
:1053740006331BB293FBF2F319330B8410BDC04602
:10538400B811002000240140C00F00205412002056
:10539400A8130020224B70B51A78224B224C5A8451
:1053A400FEF730FFFFF7B6FFFFF7ACFDFEF7C6FFD1
:1053B40000F036FB00F0A2FEFEF728F8FBF754F8E5
:1053C400FEF7B2FCFFF718FAFEF786FFFEF766FD5C
:1053D400B4F8441001221548FEF704FC144B154D93
:1053E400187094F87800FEF7A5FDA87094F8790079
:1053F400FEF7A0FDE87094F87A00FEF79BFD287193
:1054040094F87B00FEF796FD687194F87C00FEF733
:1054140091FDA87194F87D00FEF78CFDE87170BDD4
:105424007C0F0020A8130020DC1200207C10002038
:105434008C100020C41000207047C046FEE7C04610
:10544400FEE7C046FEE7C046FEE7C0467047C046DA
:105454007047C0467047C0461E4A1F481368013350
:10546400136003680133036011680A22B1FBF2F38D
:1054740002FB13132BB9194B01221A7043689B18B2
:105484004360144B64221968B1FBF2F302FB13135B
:105494001BB9114A9368013393600E484FF47A7232
:1054A4000168B1FBF2F302FB131141B90A4AD36854
:1054B4000133D3600A4A1368013313600160084959
:1054C4000B683B2B05D9044B1A6901321A6100237E
:1054D4000B607047501100203C1100203510002053
:1054E400EC1000207047C0467047C0467047C04665
:1054F4007047C0467047C0467047C0467047C046B4
:105504007047C0467047C0467047C0467047C046A3
:105514007047C0467047C0467047C0467047C04693
:105524007047C0467047C0467047C0467047C04683
:105534007047C0467047C0467047C0467047C04673
:105544007047C0467047C0467047C0467047C04663
:105554007047C0467047C0467047C0467047C04653
:105564007047C0467047C0467047C0467047C04643
:105574007047C0467047C0467047C0467047C04633
:105584007047C0467047C0467047C0467047C04623
:105594007047C0467047C0467047C0467047C04613
:1055A4007047C0467047C0467047C0467047C04603
:1055B4007047C0467047C04610B54FF4804004F0B1
:1055C40057FF68B317484FF4804104F0D3FF28B164
:1055D4004FF0804005F084FC134B188011484FF4C1
:1055E400804104F0C7FF28B900F1804005F078FC41
:1055F4000E4B188000214FF0804005F065FC0A4BEB
:1056040019880A4B1A885318A3F57A73013B622B45
:1056140002D8074BD9859A854FF4804004F038FFAF
:1056240010BDC04600080140C0110020BE1100207A
:10563400A813002010B5104840F2255105F0A6FC2F
:10564400C8B10D4805F098FC0C4A0D491378C0B256
:10565400013313700B4B08701B7863B90A4B1B782A
:10566400012B04D1094B09781A78094B9954074A3C
:1056740013780133137010BD00380140D80F002097
:10568400C2110020B10F0020B30F00204E100020E3
:10569400F410002010B5184C0221204605F024FC1B
:1056A400238C13F0020F08D02046002105F004FCDF
:1056B400204605F011FC114B0BE0238C13F0020F74
:1056C40008D12046022105F0F7FB204605F004FC32
:1056D4000B4B18800A4B1988084B1A885318A3F5EA
:1056E4007A73013B622B02D8064B59851A8502480E
:1056F400002105F0E9FB10BD00040040BC110020AE
:10570400C4110020A813002010B504F0FFF810BD48
:1057140010B54FF4005004F03FFE88B1094B00214E
:105724001970094B01221A70084B09481970094B6A
:105734001970043104F026FF4FF4005004F040FEC9
:1057440010BDC046B10F0020B30F00204E10002042
:1057540000140140D80F002010B5022004F01CFEF4
:1057640028B1034B01221A70022004F029FE10BD57
:10577400D50F002010B505F057F9142806D105F00F
:1057840087F9002005F05AF905F082F9012005F0A7
:1057940089F9024B01221A7010BDC046441600203C
:1057A40010F0030F01D0002013E06422B0FBF2F3E9
:1057B40002FB13039BB20BB101200AE04FF4C87241
:1057C400B0FBF2F302FB13039BB2D3F1010038BF29
:1057D4000020704710B5837804460133DBB2062BF2
:1057E400837001D9002383702379012B0BD0032B01
:1057F40009D0052B07D0072B05D0082B03D00A2B83
:1058040001D00C2B0BD1E2781E2A13D90C2B13D107
:105814000123E370237123880133238023E0042BC5
:1058240005D0062B03D0092B01D00B2B06D1E2782F
:105834001D2A01D8531C15E0013311E0022B12D1AB
:10584400E3781B2B01D801330CE01C2B05D12088F5
:10585400FFF7A6FF18B11D2304E01D2B03D103237A
:1058640023710123E37010BD2DE9FF4106460F4665
:10587400904601A80C221949FAF7B2FC40F2DF70F5
:10588400864201D800240FE0054600242846FFF78D
:1058940087FF01280EBF04F5B77404F5B67401340C
:1058A4006B1C9DB2B542F1D3002206E004A98B180B
:1058B40013F80C3CE418531C9AB27B1E9A42F5DB95
:1058C400012F05D93046FFF76BFF012808BF0134CB
:1058D40004EB080004B0BDE8F081C046B0B2000893
:1058E4000A4B00221A6009E0094B01329A4205D999
:1058F400064B1A60074B01221A7006E0064B9B8880
:1059040013F0200FF0D0014B1A6070473C120020B6
:105914003F4B4C00E00F0020002800400E4B0F4A84
:1059240000211960938823F008031B041B0C938047
:1059340009E00B4B0131994205D9074B012219604B
:10594400084B1A7006E0054B9B8813F0080FF0D043
:10595400014B19607047C0463C12002000280040EB
:105964003F4B4C00E00F002010B5C378017904468A
:1059740041EA0321082005F075FC0C20218805F07C
:1059840071FCA1781020090205F06CFC10BDC04622
:1059940010B5044605F07CF862783C235343A178A3
:1059A4004FF4616202FB01312078081805F046F8D3
:1059B40010BDC04670B5064605F036F84FF4616474
:1059C400B0FBF4F0B07005F02FF8B0FBF4F303FB78
:1059D40014033C25B3FBF5F3737005F025F8B0FB15
:1059E400F4F303FB1404B4FBF5F305FB1343337026
:1059F40070BDC04610B50446082005F039FC000A05
:105A0400E070082005F034FC20710C2005F030FC17
:105A14002080102005F02CFC000AA07010BDC046A8
:105A240013B5032214490DF10500FAF7D9FB04F06C
:105A3400FBFF124B98420FD905F02AF8002004F01E
:105A4400FDFF05F025F80E48FFF7C4FE0C48FFF7EC
:105A54008BFF012002F064FD074C0948FFF7CAFFE1
:105A64002046FFF7A7FF9DF8062063789A4202D0EC
:105A7400044B01221A701CBDCF1100207E5101007D
:105A8400C61100204416002070B5012004F0FCFE6D
:105A9400334A0023137053600EE031494B680133DD
:105AA4004B604A682F4B9A4201D901230B702C4B4F
:105AB4005A682C4B9A4204D8412004F097FF0028DE
:105AC400EBD0274B1B7883B94FF4807004F0ECFEC5
